{"abi":[{"type":"constructor","inputs":[],"stateMutability":"nonpayable"},{"type":"function","name":"approve","inputs":[{"name":"to","type":"address","internalType":"address"},{"name":"tokenId","type":"uint256","internalType":"uint256"}],"outputs":[],"stateMutability":"nonpayable"},{"type":"function","name":"athleteTokenCount","inputs":[{"name":"","type":"address","internalType":"address"}],"outputs":[{"name":"","type":"uint256","internalType":"uint256"}],"stateMutability":"view"},{"type":"function","name":"balanceOf","inputs":[{"name":"owner","type":"address","internalType":"address"}],"outputs":[{"name":"","type":"uint256","internalType":"uint256"}],"stateMutability":"view"},{"type":"function","name":"batchMintLegacyNFT","inputs":[{"name":"athletes","type":"address[]","internalType":"address[]"},{"name":"recipients","type":"address[]","internalType":"address[]"},{"name":"_tokenURIs","type":"string[]","internalType":"string[]"},{"name":"royaltyFees","type":"uint96[]","internalType":"uint96[]"}],"outputs":[{"name":"","type":"uint256[]","internalType":"uint256[]"}],"stateMutability":"nonpayable"},{"type":"function","name":"getApproved","inputs":[{"name":"tokenId","type":"uint256","internalType":"uint256"}],"outputs":[{"name":"","type":"address","internalType":"address"}],"stateMutability":"view"},{"type":"function","name":"isApprovedForAll","inputs":[{"name":"owner","type":"address","internalType":"address"},{"name":"operator","type":"address","internalType":"address"}],"outputs":[{"name":"","type":"bool","internalType":"bool"}],"stateMutability":"view"},{"type":"function","name":"mintLegacyNFT","inputs":[{"name":"athlete","type":"address","internalType":"address"},{"name":"recipient","type":"address","internalType":"address"},{"name":"_tokenURI","type":"string","internalType":"string"},{"name":"royaltyFee","type":"uint96","internalType":"uint96"}],"outputs":[{"name":"","type":"uint256","internalType":"uint256"}],"stateMutability":"nonpayable"},{"type":"function","name":"name","inputs":[],"outputs":[{"name":"","type":"string","internalType":"string"}],"stateMutability":"view"},{"type":"function","name":"owner","inputs":[],"outputs":[{"name":"","type":"address","internalType":"address"}],"stateMutability":"view"},{"type":"function","name":"ownerOf","inputs":[{"name":"tokenId","type":"uint256","internalType":"uint256"}],"outputs":[{"name":"","type":"address","internalType":"address"}],"stateMutability":"view"},{"type":"function","name":"renounceOwnership","inputs":[],"outputs":[],"stateMutability":"nonpayable"},{"type":"function","name":"royaltyInfo","inputs":[{"name":"tokenId","type":"uint256","internalType":"uint256"},{"name":"salePrice","type":"uint256","internalType":"uint256"}],"outputs":[{"name":"","type":"address","internalType":"address"},{"name":"","type":"uint256","internalType":"uint256"}],"stateMutability":"view"},{"type":"function","name":"safeTransferFrom","inputs":[{"name":"from","type":"address","internalType":"address"},{"name":"to","type":"address","internalType":"address"},{"name":"tokenId","type":"uint256","internalType":"uint256"}],"outputs":[],"stateMutability":"nonpayable"},{"type":"function","name":"safeTransferFrom","inputs":[{"name":"from","type":"address","internalType":"address"},{"name":"to","type":"address","internalType":"address"},{"name":"tokenId","type":"uint256","internalType":"uint256"},{"name":"data","type":"bytes","internalType":"bytes"}],"outputs":[],"stateMutability":"nonpayable"},{"type":"function","name":"setApprovalForAll","inputs":[{"name":"operator","type":"address","internalType":"address"},{"name":"approved","type":"bool","internalType":"bool"}],"outputs":[],"stateMutability":"nonpayable"},{"type":"function","name":"supportsInterface","inputs":[{"name":"interfaceId","type":"bytes4","internalType":"bytes4"}],"outputs":[{"name":"","type":"bool","internalType":"bool"}],"stateMutability":"view"},{"type":"function","name":"symbol","inputs":[],"outputs":[{"name":"","type":"string","internalType":"string"}],"stateMutability":"view"},{"type":"function","name":"tokenToAthlete","inputs":[{"name":"","type":"uint256","internalType":"uint256"}],"outputs":[{"name":"","type":"address","internalType":"address"}],"stateMutability":"view"},{"type":"function","name":"tokenURI","inputs":[{"name":"tokenId","type":"uint256","internalType":"uint256"}],"outputs":[{"name":"","type":"string","internalType":"string"}],"stateMutability":"view"},{"type":"function","name":"tokensOfOwner","inputs":[{"name":"owner","type":"address","internalType":"address"}],"outputs":[{"name":"","type":"uint256[]","internalType":"uint256[]"}],"stateMutability":"view"},{"type":"function","name":"totalSupply","inputs":[],"outputs":[{"name":"","type":"uint256","internalType":"uint256"}],"stateMutability":"view"},{"type":"function","name":"transferFrom","inputs":[{"name":"from","type":"address","internalType":"address"},{"name":"to","type":"address","internalType":"address"},{"name":"tokenId","type":"uint256","internalType":"uint256"}],"outputs":[],"stateMutability":"nonpayable"},{"type":"function","name":"transferOwnership","inputs":[{"name":"newOwner","type":"address","internalType":"address"}],"outputs":[],"stateMutability":"nonpayable"},{"type":"event","name":"Approval","inputs":[{"name":"owner","type":"address","indexed":true,"internalType":"address"},{"name":"approved","type":"address","indexed":true,"internalType":"address"},{"name":"tokenId","type":"uint256","indexed":true,"internalType":"uint256"}],"anonymous":false},{"type":"event","name":"ApprovalForAll","inputs":[{"name":"owner","type":"address","indexed":true,"internalType":"address"},{"name":"operator","type":"address","indexed":true,"internalType":"address"},{"name":"approved","type":"bool","indexed":false,"internalType":"bool"}],"anonymous":false},{"type":"event","name":"BatchMetadataUpdate","inputs":[{"name":"_fromTokenId","type":"uint256","indexed":false,"internalType":"uint256"},{"name":"_toTokenId","type":"uint256","indexed":false,"internalType":"uint256"}],"anonymous":false},{"type":"event","name":"LegacyNFTMinted","inputs":[{"name":"tokenId","type":"uint256","indexed":true,"internalType":"uint256"},{"name":"athlete","type":"address","indexed":true,"internalType":"address"},{"name":"recipient","type":"address","indexed":true,"internalType":"address"},{"name":"tokenURI","type":"string","indexed":false,"internalType":"string"},{"name":"royaltyFee","type":"uint96","indexed":false,"internalType":"uint96"}],"anonymous":false},{"type":"event","name":"MetadataUpdate","inputs":[{"name":"_tokenId","type":"uint256","indexed":false,"internalType":"uint256"}],"anonymous":false},{"type":"event","name":"OwnershipTransferred","inputs":[{"name":"previousOwner","type":"address","indexed":true,"internalType":"address"},{"name":"newOwner","type":"address","indexed":true,"internalType":"address"}],"anonymous":false},{"type":"event","name":"Transfer","inputs":[{"name":"from","type":"address","indexed":true,"internalType":"address"},{"name":"to","type":"address","indexed":true,"internalType":"address"},{"name":"tokenId","type":"uint256","indexed":true,"internalType":"uint256"}],"anonymous":false}],"bytecode":{"object":"0x60806040523480156200001157600080fd5b506040518060400160405280601781526020017f4e494c627820506c61796572204c6567616379204e46540000000000000000008152506040518060400160405280600581526020016409c929884b60db1b8152508160029081620000779190620001b9565b506003620000868282620001b9565b505050620000a36200009d620000be60201b60201c565b620000c2565b6001600a55620000b333620000c2565b6001600b5562000285565b3390565b600980546001600160a01b038381166001600160a01b0319831681179093556040519116919082907f8be0079c531659141344cd1fd0a4f28419497f9722a3daafe3b4186f6b6457e090600090a35050565b634e487b7160e01b600052604160045260246000fd5b600181811c908216806200013f57607f821691505b6020821081036200016057634e487b7160e01b600052602260045260246000fd5b50919050565b601f821115620001b457600081815260208120601f850160051c810160208610156200018f5750805b601f850160051c820191505b81811015620001b0578281556001016200019b565b5050505b505050565b81516001600160401b03811115620001d557620001d562000114565b620001ed81620001e684546200012a565b8462000166565b602080601f8311600181146200022557600084156200020c5750858301515b600019600386901b1c1916600185901b178555620001b0565b600085815260208120601f198616915b82811015620002565788860151825594840194600190910190840162000235565b5085821015620002755787850151600019600388901b60f8161c191681555b5050505050600190811b01905550565b6123cf80620002956000396000f3fe608060405234801561001057600080fd5b506004361061014d5760003560e01c80637316bcfa116100c3578063b88d4fde1161007c578063b88d4fde146102f3578063c5ee34ff14610306578063c87b56dd14610326578063ce0b868d14610339578063e985e9c51461034c578063f2fde38b1461035f57600080fd5b80637316bcfa1461026b5780638462151c146102945780638da5cb5b146102b457806395d89b41146102c5578063a22cb465146102cd578063a8ff1540146102e057600080fd5b806323b872dd1161011557806323b872dd146101e55780632a55205a146101f857806342842e0e1461022a5780636352211e1461023d57806370a0823114610250578063715018a61461026357600080fd5b806301ffc9a71461015257806306fdde031461017a578063081812fc1461018f578063095ea7b3146101ba57806318160ddd146101cf575b600080fd5b610165610160366004611a26565b610372565b60405190151581526020015b60405180910390f35b610182610383565b6040516101719190611a93565b6101a261019d366004611aa6565b610415565b6040516001600160a01b039091168152602001610171565b6101cd6101c8366004611adb565b61043c565b005b6101d7610556565b604051908152602001610171565b6101cd6101f3366004611b05565b61056c565b61020b610206366004611b41565b61059d565b604080516001600160a01b039093168352602083019190915201610171565b6101cd610238366004611b05565b610649565b6101a261024b366004611aa6565b610664565b6101d761025e366004611b63565b6106c4565b6101cd61074a565b6101a2610279366004611aa6565b600c602052600090815260409020546001600160a01b031681565b6102a76102a2366004611b63565b61075e565b6040516101719190611b7e565b6009546001600160a01b03166101a2565b61018261082c565b6101cd6102db366004611bc2565b61083b565b6101d76102ee366004611cd4565b61084a565b6101cd610301366004611d43565b61087c565b6101d7610314366004611b63565b600d6020526000908152604090205481565b610182610334366004611aa6565b6108b4565b6102a7610347366004611eb7565b6108bf565b61016561035a366004611fc6565b610a74565b6101cd61036d366004611b63565b610aa2565b600061037d82610b1b565b92915050565b60606002805461039290611ff9565b80601f01602080910402602001604051908101604052809291908181526020018280546103be90611ff9565b801561040b5780601f106103e05761010080835404028352916020019161040b565b820191906000526020600020905b8154815290600101906020018083116103ee57829003601f168201915b5050505050905090565b600061042082610b26565b506000908152600660205260409020546001600160a01b031690565b600061044782610664565b9050806001600160a01b0316836001600160a01b0316036104b95760405162461bcd60e51b815260206004820152602160248201527f4552433732313a20617070726f76616c20746f2063757272656e74206f776e656044820152603960f91b60648201526084015b60405180910390fd5b336001600160a01b03821614806104d557506104d58133610a74565b6105475760405162461bcd60e51b815260206004820152603d60248201527f4552433732313a20617070726f76652063616c6c6572206973206e6f7420746f60448201527f6b656e206f776e6572206f7220617070726f76656420666f7220616c6c00000060648201526084016104b0565b6105518383610b85565b505050565b60006001600b546105679190612049565b905090565b6105763382610bf3565b6105925760405162461bcd60e51b81526004016104b09061205c565b610551838383610c51565b60008281526001602090815260408083208151808301909252546001600160a01b038116808352600160a01b9091046001600160601b03169282019290925282916106125750604080518082019091526000546001600160a01b0381168252600160a01b90046001600160601b031660208201525b602081015160009061271090610631906001600160601b0316876120a9565b61063b91906120c0565b915196919550909350505050565b6105518383836040518060200160405280600081525061087c565b6000818152600460205260408120546001600160a01b03168061037d5760405162461bcd60e51b8152602060048201526018602482015277115490cdcc8c4e881a5b9d985b1a59081d1bdad95b88125160421b60448201526064016104b0565b60006001600160a01b03821661072e5760405162461bcd60e51b815260206004820152602960248201527f4552433732313a2061646472657373207a65726f206973206e6f7420612076616044820152683634b21037bbb732b960b91b60648201526084016104b0565b506001600160a01b031660009081526005602052604090205490565b610752610db5565b61075c6000610e0f565b565b6060600061076b836106c4565b905060008167ffffffffffffffff81111561078857610788611bfe565b6040519080825280602002602001820160405280156107b1578160200160208202803683370190505b509050600060015b600b54811015610822576000818152600460205260409020546001600160a01b0387811691160361081057808383815181106107f7576107f76120e2565b60209081029190910101528161080c816120f8565b9250505b8061081a816120f8565b9150506107b9565b5090949350505050565b60606003805461039290611ff9565b610846338383610e61565b5050565b6000610854610db5565b61085c610f2f565b61086885858585610f88565b90506108746001600a55565b949350505050565b6108863383610bf3565b6108a25760405162461bcd60e51b81526004016104b09061205c565b6108ae848484846111ad565b50505050565b606061037d826111e0565b60606108c9610db5565b6108d1610f2f565b83518551146108f25760405162461bcd60e51b81526004016104b090612111565b82518551146109135760405162461bcd60e51b81526004016104b090612111565b81518551146109345760405162461bcd60e51b81526004016104b090612111565b60008551116109745760405162461bcd60e51b815260206004820152600c60248201526b456d7074792061727261797360a01b60448201526064016104b0565b6000855167ffffffffffffffff81111561099057610990611bfe565b6040519080825280602002602001820160405280156109b9578160200160208202803683370190505b50905060005b8651811015610a6757610a388782815181106109dd576109dd6120e2565b60200260200101518783815181106109f7576109f76120e2565b6020026020010151878481518110610a1157610a116120e2565b6020026020010151878581518110610a2b57610a2b6120e2565b6020026020010151610f88565b828281518110610a4a57610a4a6120e2565b602090810291909101015280610a5f816120f8565b9150506109bf565b5090506108746001600a55565b6001600160a01b03918216600090815260076020908152604080832093909416825291909152205460ff1690565b610aaa610db5565b6001600160a01b038116610b0f5760405162461bcd60e51b815260206004820152602660248201527f4f776e61626c653a206e6577206f776e657220697320746865207a65726f206160448201526564647265737360d01b60648201526084016104b0565b610b1881610e0f565b50565b600061037d826112e8565b6000818152600460205260409020546001600160a01b0316610b185760405162461bcd60e51b8152602060048201526018602482015277115490cdcc8c4e881a5b9d985b1a59081d1bdad95b88125160421b60448201526064016104b0565b600081815260066020526040902080546001600160a01b0319166001600160a01b0384169081179091558190610bba82610664565b6001600160a01b03167f8c5be1e5ebec7d5bd14f71427d1e84f3dd0314c0f7b2291e5b200ac8c7c3b92560405160405180910390a45050565b600080610bff83610664565b9050806001600160a01b0316846001600160a01b03161480610c265750610c268185610a74565b806108745750836001600160a01b0316610c3f84610415565b6001600160a01b031614949350505050565b826001600160a01b0316610c6482610664565b6001600160a01b031614610c8a5760405162461bcd60e51b81526004016104b090612140565b6001600160a01b038216610cec5760405162461bcd60e51b8152602060048201526024808201527f4552433732313a207472616e7366657220746f20746865207a65726f206164646044820152637265737360e01b60648201526084016104b0565b826001600160a01b0316610cff82610664565b6001600160a01b031614610d255760405162461bcd60e51b81526004016104b090612140565b600081815260066020908152604080832080546001600160a01b03199081169091556001600160a01b0387811680865260058552838620805460001901905590871680865283862080546001019055868652600490945282852080549092168417909155905184937fddf252ad1be2c89b69c2b068fc378daa952ba7f163c4a11628f55a4df523b3ef91a4505050565b6009546001600160a01b0316331461075c5760405162461bcd60e51b815260206004820181905260248201527f4f776e61626c653a2063616c6c6572206973206e6f7420746865206f776e657260448201526064016104b0565b600980546001600160a01b038381166001600160a01b0319831681179093556040519116919082907f8be0079c531659141344cd1fd0a4f28419497f9722a3daafe3b4186f6b6457e090600090a35050565b816001600160a01b0316836001600160a01b031603610ec25760405162461bcd60e51b815260206004820152601960248201527f4552433732313a20617070726f766520746f2063616c6c65720000000000000060448201526064016104b0565b6001600160a01b03838116600081815260076020908152604080832094871680845294825291829020805460ff191686151590811790915591519182527f17307eab39ab6107e8899845ad3d59bd9653f200f220920489ca2b5937696c31910160405180910390a3505050565b6002600a5403610f815760405162461bcd60e51b815260206004820152601f60248201527f5265656e7472616e637947756172643a207265656e7472616e742063616c6c0060448201526064016104b0565b6002600a55565b60006001600160a01b038516610fe05760405162461bcd60e51b815260206004820152601760248201527f496e76616c6964206174686c657465206164647265737300000000000000000060448201526064016104b0565b6001600160a01b0384166110365760405162461bcd60e51b815260206004820152601960248201527f496e76616c696420726563697069656e7420616464726573730000000000000060448201526064016104b0565b60008351116110875760405162461bcd60e51b815260206004820152601960248201527f546f6b656e205552492063616e6e6f7420626520656d7074790000000000000060448201526064016104b0565b6103e8826001600160601b031611156110d95760405162461bcd60e51b81526020600482015260146024820152730a4def2c2d8e8f240cccaca40e8dede40d0d2ced60631b60448201526064016104b0565b600b805490819060006110eb836120f8565b91905055506110fa858261130d565b6111048185611327565b61110f8187856113f2565b6000818152600c6020908152604080832080546001600160a01b0319166001600160a01b038b169081179091558352600d9091528120805491611151836120f8565b9190505550846001600160a01b0316866001600160a01b0316827f21920d765cca19500135532e5e45f02cce049ecb41549dc09bb5a45a35d14555878760405161119c929190612185565b60405180910390a495945050505050565b6111b8848484610c51565b6111c484848484611500565b6108ae5760405162461bcd60e51b81526004016104b0906121b0565b60606111eb82610b26565b6000828152600860205260408120805461120490611ff9565b80601f016020809104026020016040519081016040528092919081815260200182805461123090611ff9565b801561127d5780601f106112525761010080835404028352916020019161127d565b820191906000526020600020905b81548152906001019060200180831161126057829003601f168201915b50505050509050600061129b60408051602081019091526000815290565b905080516000036112ad575092915050565b8151156112df5780826040516020016112c7929190612202565b60405160208183030381529060405292505050919050565b610874846115fe565b60006001600160e01b03198216632483248360e11b148061037d575061037d82611672565b6108468282604051806020016040528060008152506116b2565b6000828152600460205260409020546001600160a01b03166113a25760405162461bcd60e51b815260206004820152602e60248201527f45524337323155524953746f726167653a2055524920736574206f66206e6f6e60448201526d32bc34b9ba32b73a103a37b5b2b760911b60648201526084016104b0565b60008281526008602052604090206113ba828261227f565b506040518281527ff8e1a15aba9398e019f0b49df1a4fde98ee17ae345cb5f6b5e2c27f5033e8ce79060200160405180910390a15050565b6127106001600160601b03821611156114605760405162461bcd60e51b815260206004820152602a60248201527f455243323938313a20726f79616c7479206665652077696c6c206578636565646044820152692073616c65507269636560b01b60648201526084016104b0565b6001600160a01b0382166114b65760405162461bcd60e51b815260206004820152601b60248201527f455243323938313a20496e76616c696420706172616d6574657273000000000060448201526064016104b0565b6040805180820182526001600160a01b0393841681526001600160601b0392831660208083019182526000968752600190529190942093519051909116600160a01b029116179055565b60006001600160a01b0384163b156115f657604051630a85bd0160e11b81526001600160a01b0385169063150b7a029061154490339089908890889060040161233f565b6020604051808303816000875af192505050801561157f575060408051601f3d908101601f1916820190925261157c9181019061237c565b60015b6115dc573d8080156115ad576040519150601f19603f3d011682016040523d82523d6000602084013e6115b2565b606091505b5080516000036115d45760405162461bcd60e51b81526004016104b0906121b0565b805181602001fd5b6001600160e01b031916630a85bd0160e11b149050610874565b506001610874565b606061160982610b26565b600061162060408051602081019091526000815290565b90506000815111611640576040518060200160405280600081525061166b565b8061164a846116e5565b60405160200161165b929190612202565b6040516020818303038152906040525b9392505050565b60006001600160e01b031982166380ac58cd60e01b14806116a357506001600160e01b03198216635b5e139f60e01b145b8061037d575061037d82611778565b6116bc83836117ad565b6116c96000848484611500565b6105515760405162461bcd60e51b81526004016104b0906121b0565b606060006116f283611938565b600101905060008167ffffffffffffffff81111561171257611712611bfe565b6040519080825280601f01601f19166020018201604052801561173c576020820181803683370190505b5090508181016020015b600019016f181899199a1a9b1b9c1cb0b131b232b360811b600a86061a8153600a850494508461174657509392505050565b60006001600160e01b0319821663152a902d60e11b148061037d57506301ffc9a760e01b6001600160e01b031983161461037d565b6001600160a01b0382166118035760405162461bcd60e51b815260206004820181905260248201527f4552433732313a206d696e7420746f20746865207a65726f206164647265737360448201526064016104b0565b6000818152600460205260409020546001600160a01b0316156118685760405162461bcd60e51b815260206004820152601c60248201527f4552433732313a20746f6b656e20616c7265616479206d696e7465640000000060448201526064016104b0565b6000818152600460205260409020546001600160a01b0316156118cd5760405162461bcd60e51b815260206004820152601c60248201527f4552433732313a20746f6b656e20616c7265616479206d696e7465640000000060448201526064016104b0565b6001600160a01b038216600081815260056020908152604080832080546001019055848352600490915280822080546001600160a01b0319168417905551839291907fddf252ad1be2c89b69c2b068fc378daa952ba7f163c4a11628f55a4df523b3ef908290a45050565b60008072184f03e93ff9f4daa797ed6e38ed64bf6a1f0160401b83106119775772184f03e93ff9f4daa797ed6e38ed64bf6a1f0160401b830492506040015b6d04ee2d6d415b85acef810000000083106119a3576d04ee2d6d415b85acef8100000000830492506020015b662386f26fc1000083106119c157662386f26fc10000830492506010015b6305f5e10083106119d9576305f5e100830492506008015b61271083106119ed57612710830492506004015b606483106119ff576064830492506002015b600a831061037d5760010192915050565b6001600160e01b031981168114610b1857600080fd5b600060208284031215611a3857600080fd5b813561166b81611a10565b60005b83811015611a5e578181015183820152602001611a46565b50506000910152565b60008151808452611a7f816020860160208601611a43565b601f01601f19169290920160200192915050565b60208152600061166b6020830184611a67565b600060208284031215611ab857600080fd5b5035919050565b80356001600160a01b0381168114611ad657600080fd5b919050565b60008060408385031215611aee57600080fd5b611af783611abf565b946020939093013593505050565b600080600060608486031215611b1a57600080fd5b611b2384611abf565b9250611b3160208501611abf565b9150604084013590509250925092565b60008060408385031215611b5457600080fd5b50508035926020909101359150565b600060208284031215611b7557600080fd5b61166b82611abf565b6020808252825182820181905260009190848201906040850190845b81811015611bb657835183529284019291840191600101611b9a565b50909695505050505050565b60008060408385031215611bd557600080fd5b611bde83611abf565b915060208301358015158114611bf357600080fd5b809150509250929050565b634e487b7160e01b600052604160045260246000fd5b604051601f8201601f1916810167ffffffffffffffff81118282101715611c3d57611c3d611bfe565b604052919050565b600067ffffffffffffffff831115611c5f57611c5f611bfe565b611c72601f8401601f1916602001611c14565b9050828152838383011115611c8657600080fd5b828260208301376000602084830101529392505050565b600082601f830112611cae57600080fd5b61166b83833560208501611c45565b80356001600160601b0381168114611ad657600080fd5b60008060008060808587031215611cea57600080fd5b611cf385611abf565b9350611d0160208601611abf565b9250604085013567ffffffffffffffff811115611d1d57600080fd5b611d2987828801611c9d565b925050611d3860608601611cbd565b905092959194509250565b60008060008060808587031215611d5957600080fd5b611d6285611abf565b9350611d7060208601611abf565b925060408501359150606085013567ffffffffffffffff811115611d9357600080fd5b8501601f81018713611da457600080fd5b611db387823560208401611c45565b91505092959194509250565b600067ffffffffffffffff821115611dd957611dd9611bfe565b5060051b60200190565b600082601f830112611df457600080fd5b81356020611e09611e0483611dbf565b611c14565b82815260059290921b84018101918181019086841115611e2857600080fd5b8286015b84811015611e4a57611e3d81611abf565b8352918301918301611e2c565b509695505050505050565b600082601f830112611e6657600080fd5b81356020611e76611e0483611dbf565b82815260059290921b84018101918181019086841115611e9557600080fd5b8286015b84811015611e4a57611eaa81611cbd565b8352918301918301611e99565b60008060008060808587031215611ecd57600080fd5b843567ffffffffffffffff80821115611ee557600080fd5b611ef188838901611de3565b9550602091508187013581811115611f0857600080fd5b611f1489828a01611de3565b955050604087013581811115611f2957600080fd5b8701601f81018913611f3a57600080fd5b8035611f48611e0482611dbf565b81815260059190911b8201840190848101908b831115611f6757600080fd5b8584015b83811015611f9f57803586811115611f835760008081fd5b611f918e8983890101611c9d565b845250918601918601611f6b565b5096505050506060870135915080821115611fb957600080fd5b50611db387828801611e55565b60008060408385031215611fd957600080fd5b611fe283611abf565b9150611ff060208401611abf565b90509250929050565b600181811c9082168061200d57607f821691505b60208210810361202d57634e487b7160e01b600052602260045260246000fd5b50919050565b634e487b7160e01b600052601160045260246000fd5b8181038181111561037d5761037d612033565b6020808252602d908201527f4552433732313a2063616c6c6572206973206e6f7420746f6b656e206f776e6560408201526c1c881bdc88185c1c1c9bdd9959609a1b606082015260800190565b808202811582820484141761037d5761037d612033565b6000826120dd57634e487b7160e01b600052601260045260246000fd5b500490565b634e487b7160e01b600052603260045260246000fd5b60006001820161210a5761210a612033565b5060010190565b602080825260159082015274082e4e4c2f240d8cadccee8d040dad2e6dac2e8c6d605b1b604082015260600190565b60208082526025908201527f4552433732313a207472616e736665722066726f6d20696e636f72726563742060408201526437bbb732b960d91b606082015260800190565b6040815260006121986040830185611a67565b90506001600160601b03831660208301529392505050565b60208082526032908201527f4552433732313a207472616e7366657220746f206e6f6e20455243373231526560408201527131b2b4bb32b91034b6b83632b6b2b73a32b960711b606082015260800190565b60008351612214818460208801611a43565b835190830190612228818360208801611a43565b01949350505050565b601f82111561055157600081815260208120601f850160051c810160208610156122585750805b601f850160051c820191505b8181101561227757828155600101612264565b505050505050565b815167ffffffffffffffff81111561229957612299611bfe565b6122ad816122a78454611ff9565b84612231565b602080601f8311600181146122e257600084156122ca5750858301515b600019600386901b1c1916600185901b178555612277565b600085815260208120601f198616915b82811015612311578886015182559484019460019091019084016122f2565b508582101561232f5787850151600019600388901b60f8161c191681555b5050505050600190811b01905550565b6001600160a01b038581168252841660208201526040810183905260806060820181905260009061237290830184611a67565b9695505050505050565b60006020828403121561238e57600080fd5b815161166b81611a1056fea2646970667358221220a540ec7eb470c2b3ced49a1ab0b1174c36a2208eccc6bb15685858721d6fd23064736f6c63430008130033","linkReferences":{}},"methodIdentifiers":{"approve(address,uint256)":"095ea7b3","athleteTokenCount(address)":"c5ee34ff","balanceOf(address)":"70a08231","batchMintLegacyNFT(address[],address[],string[],uint96[])":"ce0b868d","getApproved(uint256)":"081812fc","isApprovedForAll(address,address)":"e985e9c5","mintLegacyNFT(address,address,string,uint96)":"a8ff1540","name()":"06fdde03","owner()":"8da5cb5b","ownerOf(uint256)":"6352211e","renounceOwnership()":"715018a6","royaltyInfo(uint256,uint256)":"2a55205a","safeTransferFrom(address,address,uint256)":"42842e0e","safeTransferFrom(address,address,uint256,bytes)":"b88d4fde","setApprovalForAll(address,bool)":"a22cb465","supportsInterface(bytes4)":"01ffc9a7","symbol()":"95d89b41","tokenToAthlete(uint256)":"7316bcfa","tokenURI(uint256)":"c87b56dd","tokensOfOwner(address)":"8462151c","totalSupply()":"18160ddd","transferFrom(address,address,uint256)":"23b872dd","transferOwnership(address)":"f2fde38b"},"id":0}