{"abi":[{"type":"constructor","inputs":[{"name":"_platformFeeRecipient","type":"address","internalType":"address"}],"stateMutability":"nonpayable"},{"type":"function","name":"acceptTask","inputs":[{"name":"taskId","type":"uint256","internalType":"uint256"}],"outputs":[],"stateMutability":"nonpayable"},{"type":"function","name":"approveTask","inputs":[{"name":"taskId","type":"uint256","internalType":"uint256"}],"outputs":[],"stateMutability":"nonpayable"},{"type":"function","name":"athleteEarnings","inputs":[{"name":"","type":"address","internalType":"address"}],"outputs":[{"name":"","type":"uint256","internalType":"uint256"}],"stateMutability":"view"},{"type":"function","name":"athleteTasks","inputs":[{"name":"","type":"address","internalType":"address"},{"name":"","type":"uint256","internalType":"uint256"}],"outputs":[{"name":"","type":"uint256","internalType":"uint256"}],"stateMutability":"view"},{"type":"function","name":"cancelTask","inputs":[{"name":"taskId","type":"uint256","internalType":"uint256"}],"outputs":[],"stateMutability":"nonpayable"},{"type":"function","name":"createTask","inputs":[{"name":"athlete","type":"address","internalType":"address"},{"name":"description","type":"string","internalType":"string"}],"outputs":[{"name":"","type":"uint256","internalType":"uint256"}],"stateMutability":"payable"},{"type":"function","name":"emergencyWithdraw","inputs":[],"outputs":[],"stateMutability":"nonpayable"},{"type":"function","name":"getAthleteTasks","inputs":[{"name":"athlete","type":"address","internalType":"address"}],"outputs":[{"name":"","type":"uint256[]","internalType":"uint256[]"}],"stateMutability":"view"},{"type":"function","name":"getSponsorTasks","inputs":[{"name":"sponsor","type":"address","internalType":"address"}],"outputs":[{"name":"","type":"uint256[]","internalType":"uint256[]"}],"stateMutability":"view"},{"type":"function","name":"getTask","inputs":[{"name":"taskId","type":"uint256","internalType":"uint256"}],"outputs":[{"name":"","type":"tuple","internalType":"struct SponsorshipContract.Task","components":[{"name":"taskId","type":"uint256","internalType":"uint256"},{"name":"sponsor","type":"address","internalType":"address"},{"name":"athlete","type":"address","internalType":"address"},{"name":"amount","type":"uint256","internalType":"uint256"},{"name":"description","type":"string","internalType":"string"},{"name":"status","type":"uint8","internalType":"enum SponsorshipContract.TaskStatus"},{"name":"createdAt","type":"uint256","internalType":"uint256"},{"name":"completedAt","type":"uint256","internalType":"uint256"},{"name":"deliverableHash","type":"bytes32","internalType":"bytes32"}]}],"stateMutability":"view"},{"type":"function","name":"owner","inputs":[],"outputs":[{"name":"","type":"address","internalType":"address"}],"stateMutability":"view"},{"type":"function","name":"platformFeePercentage","inputs":[],"outputs":[{"name":"","type":"uint256","internalType":"uint256"}],"stateMutability":"view"},{"type":"function","name":"platformFeeRecipient","inputs":[],"outputs":[{"name":"","type":"address","internalType":"address"}],"stateMutability":"view"},{"type":"function","name":"renounceOwnership","inputs":[],"outputs":[],"stateMutability":"nonpayable"},{"type":"function","name":"sponsorSpending","inputs":[{"name":"","type":"address","internalType":"address"}],"outputs":[{"name":"","type":"uint256","internalType":"uint256"}],"stateMutability":"view"},{"type":"function","name":"sponsorTasks","inputs":[{"name":"","type":"address","internalType":"address"},{"name":"","type":"uint256","internalType":"uint256"}],"outputs":[{"name":"","type":"uint256","internalType":"uint256"}],"stateMutability":"view"},{"type":"function","name":"submitDeliverable","inputs":[{"name":"taskId","type":"uint256","internalType":"uint256"},{"name":"deliverableHash","type":"bytes32","internalType":"bytes32"}],"outputs":[],"stateMutability":"nonpayable"},{"type":"function","name":"tasks","inputs":[{"name":"","type":"uint256","internalType":"uint256"}],"outputs":[{"name":"taskId","type":"uint256","internalType":"uint256"},{"name":"sponsor","type":"address","internalType":"address"},{"name":"athlete","type":"address","internalType":"address"},{"name":"amount","type":"uint256","internalType":"uint256"},{"name":"description","type":"string","internalType":"string"},{"name":"status","type":"uint8","internalType":"enum SponsorshipContract.TaskStatus"},{"name":"createdAt","type":"uint256","internalType":"uint256"},{"name":"completedAt","type":"uint256","internalType":"uint256"},{"name":"deliverableHash","type":"bytes32","internalType":"bytes32"}],"stateMutability":"view"},{"type":"function","name":"totalTasks","inputs":[],"outputs":[{"name":"","type":"uint256","internalType":"uint256"}],"stateMutability":"view"},{"type":"function","name":"transferOwnership","inputs":[{"name":"newOwner","type":"address","internalType":"address"}],"outputs":[],"stateMutability":"nonpayable"},{"type":"function","name":"updatePlatformFee","inputs":[{"name":"newFeePercentage","type":"uint256","internalType":"uint256"}],"outputs":[],"stateMutability":"nonpayable"},{"type":"function","name":"updatePlatformFeeRecipient","inputs":[{"name":"newRecipient","type":"address","internalType":"address"}],"outputs":[],"stateMutability":"nonpayable"},{"type":"event","name":"OwnershipTransferred","inputs":[{"name":"previousOwner","type":"address","indexed":true,"internalType":"address"},{"name":"newOwner","type":"address","indexed":true,"internalType":"address"}],"anonymous":false},{"type":"event","name":"PaymentReleased","inputs":[{"name":"taskId","type":"uint256","indexed":true,"internalType":"uint256"},{"name":"athlete","type":"address","indexed":true,"internalType":"address"},{"name":"athleteAmount","type":"uint256","indexed":false,"internalType":"uint256"},{"name":"platformFee","type":"uint256","indexed":false,"internalType":"uint256"}],"anonymous":false},{"type":"event","name":"TaskCancelled","inputs":[{"name":"taskId","type":"uint256","indexed":true,"internalType":"uint256"},{"name":"sponsor","type":"address","indexed":true,"internalType":"address"}],"anonymous":false},{"type":"event","name":"TaskCompleted","inputs":[{"name":"taskId","type":"uint256","indexed":true,"internalType":"uint256"},{"name":"athlete","type":"address","indexed":true,"internalType":"address"},{"name":"sponsor","type":"address","indexed":true,"internalType":"address"}],"anonymous":false},{"type":"event","name":"TaskCreated","inputs":[{"name":"taskId","type":"uint256","indexed":true,"internalType":"uint256"},{"name":"sponsor","type":"address","indexed":true,"internalType":"address"},{"name":"athlete","type":"address","indexed":true,"internalType":"address"},{"name":"amount","type":"uint256","indexed":false,"internalType":"uint256"},{"name":"description","type":"string","indexed":false,"internalType":"string"}],"anonymous":false},{"type":"event","name":"TaskSubmitted","inputs":[{"name":"taskId","type":"uint256","indexed":true,"internalType":"uint256"},{"name":"athlete","type":"address","indexed":true,"internalType":"address"},{"name":"deliverableHash","type":"bytes32","indexed":false,"internalType":"bytes32"}],"anonymous":false},{"type":"error","name":"CannotCancelTask","inputs":[]},{"type":"error","name":"FeeTooHigh","inputs":[]},{"type":"error","name":"InvalidAthleteAddress","inputs":[]},{"type":"error","name":"InvalidDeliverableHash","inputs":[]},{"type":"error","name":"InvalidDescription","inputs":[]},{"type":"error","name":"InvalidFeeRecipient","inputs":[]},{"type":"error","name":"InvalidRecipient","inputs":[]},{"type":"error","name":"NotAssignedAthlete","inputs":[]},{"type":"error","name":"OnlyAthleteCanSubmit","inputs":[]},{"type":"error","name":"OnlySponsorCanApprove","inputs":[]},{"type":"error","name":"OnlySponsorCanCancel","inputs":[]},{"type":"error","name":"PaymentRequired","inputs":[]},{"type":"error","name":"TaskNotAvailable","inputs":[]},{"type":"error","name":"TaskNotCompleted","inputs":[]},{"type":"error","name":"TaskNotInProgress","inputs":[]},{"type":"error","name":"TaskNotSubmitted","inputs":[]}],"bytecode":{"object":"0x60806040526101906008553480156200001757600080fd5b5060405162001d4238038062001d428339810160408190526200003a91620000f3565b6200004533620000a3565b600180556001600160a01b0381166200007157604051630ed1b8b360e31b815260040160405180910390fd5b600980546001600160a01b0319166001600160a01b03831617905560016007556200009c33620000a3565b5062000125565b600080546001600160a01b038381166001600160a01b0319831681178455604051919092169283917f8be0079c531659141344cd1fd0a4f28419497f9722a3daafe3b4186f6b6457e09190a35050565b6000602082840312156200010657600080fd5b81516001600160a01b03811681146200011e57600080fd5b9392505050565b611c0d80620001356000396000f3fe6080604052600436106101355760003560e01c80638ebe2e70116100ab578063d13be2031161006f578063d13be2031461037f578063d22c81e5146103ac578063db2e21bc146103c1578063eb13554f146103d6578063f2fde38b146103f6578063f5fe7f711461041657600080fd5b80638ebe2e70146102f6578063934b68b514610309578063a62cff4514610329578063aa0b598814610349578063cdd78cfc1461036957600080fd5b80634a895eca116100fd5780634a895eca14610200578063715018a61461022d57806373a59ec4146102425780637eec20a81461026f5780638d9776721461028f5780638da5cb5b146102c457600080fd5b80630a07fae61461013a5780631bf6912d1461015c5780631d65e77e1461017c57806338cb9d56146101b25780633ed7ccc5146101e0575b600080fd5b34801561014657600080fd5b5061015a61015536600461165c565b610436565b005b34801561016857600080fd5b5061015a61017736600461165c565b6106a0565b34801561018857600080fd5b5061019c61019736600461165c565b610727565b6040516101a991906116f3565b60405180910390f35b3480156101be57600080fd5b506101d26101cd3660046117b3565b6108ae565b6040519081526020016101a9565b3480156101ec57600080fd5b506101d26101fb3660046117b3565b6108df565b34801561020c57600080fd5b506101d261021b3660046117dd565b60066020526000908152604090205481565b34801561023957600080fd5b5061015a6108fb565b34801561024e57600080fd5b5061026261025d3660046117dd565b61090f565b6040516101a991906117ff565b34801561027b57600080fd5b5061015a61028a36600461165c565b61097b565b34801561029b57600080fd5b506102af6102aa36600461165c565b610c5d565b6040516101a999989796959493929190611843565b3480156102d057600080fd5b506000546001600160a01b03165b6040516001600160a01b0390911681526020016101a9565b6101d26103043660046118c4565b610d41565b34801561031557600080fd5b5061015a610324366004611986565b610f99565b34801561033557600080fd5b506102626103443660046117dd565b61120e565b34801561035557600080fd5b5061015a61036436600461165c565b611278565b34801561037557600080fd5b506101d260085481565b34801561038b57600080fd5b506101d261039a3660046117dd565b60056020526000908152604090205481565b3480156103b857600080fd5b506101d26112a8565b3480156103cd57600080fd5b5061015a6112be565b3480156103e257600080fd5b506009546102de906001600160a01b031681565b34801561040257600080fd5b5061015a6104113660046117dd565b611303565b34801561042257600080fd5b5061015a6104313660046117dd565b611379565b60008181526002602081815260408084208151610120810183528154815260018201546001600160a01b039081169482019490945293810154909216908301526003810154606083015260048101805485949392916080840191610499906119a8565b80601f01602080910402602001604051908101604052809291908181526020018280546104c5906119a8565b80156105125780601f106104e757610100808354040283529160200191610512565b820191906000526020600020905b8154815290600101906020018083116104f557829003601f168201915b505050918352505060058281015460209092019160ff1690811115610539576105396116bb565b600581111561054a5761054a6116bb565b81526020016006820154815260200160078201548152602001600882015481525050905080602001516001600160a01b0316336001600160a01b031614806105a7575080604001516001600160a01b0316336001600160a01b0316145b6105cc5760405162461bcd60e51b81526004016105c3906119e2565b60405180910390fd5b600083815260026020526040902060018101546001600160a01b0316331461060757604051634f93aee760e01b815260040160405180910390fd5b600260058083015460ff1690811115610622576106226116bb565b14610640576040516315fcfca760e21b815260040160405180910390fd5b60058101805460ff19166003179055426007820155600281015460405133916001600160a01b03169086907f71df29d45998a549c1f24c01fb77e4eb23d0655460af8d435c59de2d8f572d9690600090a461069a846113ca565b50505050565b6000818152600260208190526040909120908101546001600160a01b031633146106dd57604051635acf651f60e01b815260040160405180910390fd5b600060058083015460ff16908111156106f8576106f86116bb565b1461071657604051630a9188ef60e31b815260040160405180910390fd5b600501805460ff1916600117905550565b60408051610120810182526000808252602082018190529181018290526060808201839052608082015260a0810182905260c0810182905260e081018290526101008101919091526000828152600260208181526040928390208351610120810185528154815260018201546001600160a01b03908116938201939093529281015490911692820192909252600382015460608201526004820180549192916080840191906107d5906119a8565b80601f0160208091040260200160405190810160405280929190818152602001828054610801906119a8565b801561084e5780601f106108235761010080835404028352916020019161084e565b820191906000526020600020905b81548152906001019060200180831161083157829003601f168201915b505050918352505060058281015460209092019160ff1690811115610875576108756116bb565b6005811115610886576108866116bb565b8152600682015460208201526007820154604082015260089091015460609091015292915050565b600360205281600052604060002081815481106108ca57600080fd5b90600052602060002001600091509150505481565b600460205281600052604060002081815481106108ca57600080fd5b610903611559565b61090d60006115b3565b565b6001600160a01b03811660009081526004602090815260409182902080548351818402810184019094528084526060939283018282801561096f57602002820191906000526020600020905b81548152602001906001019080831161095b575b50505050509050919050565b60008181526002602081815260408084208151610120810183528154815260018201546001600160a01b0390811694820194909452938101549092169083015260038101546060830152600481018054859493929160808401916109de906119a8565b80601f0160208091040260200160405190810160405280929190818152602001828054610a0a906119a8565b8015610a575780601f10610a2c57610100808354040283529160200191610a57565b820191906000526020600020905b815481529060010190602001808311610a3a57829003601f168201915b505050918352505060058281015460209092019160ff1690811115610a7e57610a7e6116bb565b6005811115610a8f57610a8f6116bb565b81526020016006820154815260200160078201548152602001600882015481525050905080602001516001600160a01b0316336001600160a01b03161480610aec575080604001516001600160a01b0316336001600160a01b0316145b610b085760405162461bcd60e51b81526004016105c3906119e2565b600083815260026020526040902060018101546001600160a01b03163314610b435760405163bd10035360e01b815260040160405180910390fd5b600060058083015460ff1690811115610b5e57610b5e6116bb565b14158015610b855750600160058083015460ff1690811115610b8257610b826116bb565b14155b15610ba3576040516302f09b9d60e31b815260040160405180910390fd5b6005818101805460ff19169091179055600181015460038201546040516001600160a01b03909216916108fc82150291906000818181858888f19350505050158015610bf3573d6000803e3d6000fd5b50600381015460018201546001600160a01b031660009081526006602052604081208054909190610c25908490611a2f565b9091555050604051339085907f76be7f7b12bf790225259ca3b7ffb98f222f79af3c4c074e88e0c97af6f1402590600090a350505050565b60026020819052600091825260409091208054600182015492820154600383015460048401805493956001600160a01b0390811695931693919291610ca1906119a8565b80601f0160208091040260200160405190810160405280929190818152602001828054610ccd906119a8565b8015610d1a5780601f10610cef57610100808354040283529160200191610d1a565b820191906000526020600020905b815481529060010190602001808311610cfd57829003601f168201915b50505050600583015460068401546007850154600890950154939460ff9092169390925089565b6000610d4b611603565b6001600160a01b038316610d72576040516305a1b2f360e41b815260040160405180910390fd5b34600003610d9357604051638b87dfbb60e01b815260040160405180910390fd5b8151600003610db5576040516340132f1f60e01b815260040160405180910390fd5b600780549081906000610dc783611a42565b909155505060408051610120810182528281523360208083019182526001600160a01b038881168486019081523460608601908152608086018a8152600060a088018190524260c089015260e088018190526101008801819052898152600295869052979097208651815594516001860180549185166001600160a01b031992831617905591519385018054949093169390911692909217905551600382015591519091906004820190610e7b9082611aaa565b5060a08201518160050160006101000a81548160ff02191690836005811115610ea657610ea66116bb565b021790555060c082015160068083019190915560e08301516007830155610100909201516008909101556001600160a01b038516600090815260036020908152604080832080546001818101835591855283852001869055338085526004845282852080549283018155855283852090910186905583529290529081208054349290610f33908490611b6a565b92505081905550836001600160a01b0316336001600160a01b0316827f9d1a74ff76ed8be69c0f070201c5d6d58a0a971e56ad1b15a9d4efea4df9e3e73487604051610f80929190611b7d565b60405180910390a49050610f9360018055565b92915050565b60008281526002602081815260408084208151610120810183528154815260018201546001600160a01b039081169482019490945293810154909216908301526003810154606083015260048101805486949392916080840191610ffc906119a8565b80601f0160208091040260200160405190810160405280929190818152602001828054611028906119a8565b80156110755780601f1061104a57610100808354040283529160200191611075565b820191906000526020600020905b81548152906001019060200180831161105857829003601f168201915b505050918352505060058281015460209092019160ff169081111561109c5761109c6116bb565b60058111156110ad576110ad6116bb565b81526020016006820154815260200160078201548152602001600882015481525050905080602001516001600160a01b0316336001600160a01b0316148061110a575080604001516001600160a01b0316336001600160a01b0316145b6111265760405162461bcd60e51b81526004016105c3906119e2565b6000848152600260208190526040909120908101546001600160a01b0316331461116357604051632e00c9cd60e21b815260040160405180910390fd5b600160058083015460ff169081111561117e5761117e6116bb565b1461119c5760405163109d83db60e11b815260040160405180910390fd5b836111ba5760405163519303af60e01b815260040160405180910390fd5b60058101805460ff1916600217905560088101849055604051848152339086907f426c8a62b17e201c4e6c6b4364193ae08f72edc8f5e2aa0b9aa3848f5bb5d9549060200160405180910390a35050505050565b6001600160a01b03811660009081526003602090815260409182902080548351818402810184019094528084526060939283018282801561096f576020028201919060005260206000209081548152602001906001019080831161095b5750505050509050919050565b611280611559565b6103e88111156112a35760405163cd4e616760e01b815260040160405180910390fd5b600855565b600060016007546112b99190611a2f565b905090565b6112c6611559565b600080546040516001600160a01b03909116914780156108fc02929091818181858888f19350505050158015611300573d6000803e3d6000fd5b50565b61130b611559565b6001600160a01b0381166113705760405162461bcd60e51b815260206004820152602660248201527f4f776e61626c653a206e6577206f776e657220697320746865207a65726f206160448201526564647265737360d01b60648201526084016105c3565b611300816115b3565b611381611559565b6001600160a01b0381166113a857604051634e46966960e11b815260040160405180910390fd5b600980546001600160a01b0319166001600160a01b0392909216919091179055565b6000818152600260205260409020600360058083015460ff16908111156113f3576113f36116bb565b14611411576040516316da98a560e01b815260040160405180910390fd5b600061271060085483600301546114289190611b9e565b6114329190611bb5565b905060008183600301546114469190611a2f565b60058401805491925060049160ff1916600183021790555060028301546001600160a01b03166000908152600560205260408120805483929061148a908490611b6a565b909155505060028301546040516001600160a01b039091169082156108fc029083906000818181858888f193505050501580156114cb573d6000803e3d6000fd5b506009546040516001600160a01b039091169083156108fc029084906000818181858888f19350505050158015611506573d6000803e3d6000fd5b50600283015460408051838152602081018590526001600160a01b039092169186917f8cdc8dc08e54a4e57f52077ecf1b4c508758513439cae2aa325dcc85b922fca8910160405180910390a350505050565b6000546001600160a01b0316331461090d5760405162461bcd60e51b815260206004820181905260248201527f4f776e61626c653a2063616c6c6572206973206e6f7420746865206f776e657260448201526064016105c3565b600080546001600160a01b038381166001600160a01b0319831681178455604051919092169283917f8be0079c531659141344cd1fd0a4f28419497f9722a3daafe3b4186f6b6457e09190a35050565b6002600154036116555760405162461bcd60e51b815260206004820152601f60248201527f5265656e7472616e637947756172643a207265656e7472616e742063616c6c0060448201526064016105c3565b6002600155565b60006020828403121561166e57600080fd5b5035919050565b6000815180845260005b8181101561169b5760208185018101518683018201520161167f565b506000602082860101526020601f19601f83011685010191505092915050565b634e487b7160e01b600052602160045260246000fd5b600681106116ef57634e487b7160e01b600052602160045260246000fd5b9052565b60208152815160208201526000602083015161171a60408401826001600160a01b03169052565b5060408301516001600160a01b0381166060840152506060830151608083015260808301516101208060a0850152611756610140850183611675565b915060a085015161176a60c08601826116d1565b5060c085015160e085015260e0850151610100818187015280870151838701525050508091505092915050565b80356001600160a01b03811681146117ae57600080fd5b919050565b600080604083850312156117c657600080fd5b6117cf83611797565b946020939093013593505050565b6000602082840312156117ef57600080fd5b6117f882611797565b9392505050565b6020808252825182820181905260009190848201906040850190845b818110156118375783518352928401929184019160010161181b565b50909695505050505050565b8981526001600160a01b03898116602083015288166040820152606081018790526101206080820181905260009061187d83820189611675565b91505061188d60a08301876116d1565b8460c08301528360e0830152826101008301529a9950505050505050505050565b634e487b7160e01b600052604160045260246000fd5b600080604083850312156118d757600080fd5b6118e083611797565b9150602083013567ffffffffffffffff808211156118fd57600080fd5b818501915085601f83011261191157600080fd5b813581811115611923576119236118ae565b604051601f8201601f19908116603f0116810190838211818310171561194b5761194b6118ae565b8160405282815288602084870101111561196457600080fd5b8260208601602083013760006020848301015280955050505050509250929050565b6000806040838503121561199957600080fd5b50508035926020909101359150565b600181811c908216806119bc57607f821691505b6020821081036119dc57634e487b7160e01b600052602260045260246000fd5b50919050565b6020808252601c908201527f4e6f7420617574686f72697a656420666f722074686973207461736b00000000604082015260600190565b634e487b7160e01b600052601160045260246000fd5b81810381811115610f9357610f93611a19565b600060018201611a5457611a54611a19565b5060010190565b601f821115611aa557600081815260208120601f850160051c81016020861015611a825750805b601f850160051c820191505b81811015611aa157828155600101611a8e565b5050505b505050565b815167ffffffffffffffff811115611ac457611ac46118ae565b611ad881611ad284546119a8565b84611a5b565b602080601f831160018114611b0d5760008415611af55750858301515b600019600386901b1c1916600185901b178555611aa1565b600085815260208120601f198616915b82811015611b3c57888601518255948401946001909101908401611b1d565b5085821015611b5a5787850151600019600388901b60f8161c191681555b5050505050600190811b01905550565b80820180821115610f9357610f93611a19565b828152604060208201526000611b966040830184611675565b949350505050565b8082028115828204841417610f9357610f93611a19565b600082611bd257634e487b7160e01b600052601260045260246000fd5b50049056fea264697066735822122077236ac08a0b474101c35fb8d05a9542b1c2f1c89398a5bfb70ba8c3dbaf248f64736f6c63430008130033","linkReferences":{}},"methodIdentifiers":{"acceptTask(uint256)":"1bf6912d","approveTask(uint256)":"0a07fae6","athleteEarnings(address)":"d13be203","athleteTasks(address,uint256)":"38cb9d56","cancelTask(uint256)":"7eec20a8","createTask(address,string)":"8ebe2e70","emergencyWithdraw()":"db2e21bc","getAthleteTasks(address)":"a62cff45","getSponsorTasks(address)":"73a59ec4","getTask(uint256)":"1d65e77e","owner()":"8da5cb5b","platformFeePercentage()":"cdd78cfc","platformFeeRecipient()":"eb13554f","renounceOwnership()":"715018a6","sponsorSpending(address)":"4a895eca","sponsorTasks(address,uint256)":"3ed7ccc5","submitDeliverable(uint256,bytes32)":"934b68b5","tasks(uint256)":"8d977672","totalTasks()":"d22c81e5","transferOwnership(address)":"f2fde38b","updatePlatformFee(uint256)":"aa0b5988","updatePlatformFeeRecipient(address)":"f5fe7f71"},"id":1}